:100000000C945D000C9485000C9485000C94850084
:100010000C9485000C9485000C9485000C9485004C
:100020000C9485000C9485000C9485000C9485003C
:100030000C9485000C9485000C9485000C9485002C
:100040000C949B020C9485000C9469020C9443025E
:100050000C9485000C9485000C9485000C9485000C
:100060000C9485000C94850000000008000201003B
:100070000003040700000000000000000000000072
:10008000250028002B0000000000240027002A0083
:10009000040404040404040402020202020203032E
:1000A0000303030301020408102040800102040836
:1000B00010200102040810209E0311241FBECFEF60
:1000C000D8E0DEBFCDBF11E0A0E0B1E0E0EBF7E0AB
:1000D00002C005900D92A232B107D9F721E0A2E249
:1000E000B1E001C01D92A83CB207E1F710E0CDE5F8
:1000F000D0E004C02197FE010E94CB03CC35D1078C
:10010000C9F70E94E5020C94D6030C940000CF922C
:10011000DF92EF92FF920F931F93CF93DF936C01C7
:100120007A018B01C0E0D0E0CE15DF0581F0D80167
:100130006D918D01D601ED91FC910190F081E02D42
:10014000C6010995892B11F02196EECF7E01C701DA
:10015000DF91CF911F910F91FF90EF90DF90CF90A3
:100160000895089580E090E00895FC01538D448D3A
:10017000252F30E0842F90E0821B930B541710F052
:10018000CF96089501970895FC01918D828D98175F
:1001900061F0828DDF01A80FB11D5D968C91928D6B
:1001A0009F5F9F73928F90E008958FEF9FEF089568
:1001B000FC01918D828D981731F0828DE80FF11D31
:1001C000858D90E008958FEF9FEF0895FC01918D4C
:1001D000228D892F90E0805C9F4F821B91098F7345
:1001E000992708958BE291E00E94E60021E0892B97
:1001F00009F420E0822F0895FC01848DDF01A80F0F
:10020000B11DA35ABF4F2C91848D90E001968F733E
:100210009927848FA689B7892C93A089B1898C915D
:10022000837080648C93938D848D981306C00288AC
:10023000F389E02D80818F7D80830895EF92FF9276
:100240000F931F93CF93DF93EC0181E0888F9B8DF9
:100250008C8D981305C0E889F989808185FD26C0B9
:10026000F62E0B8D10E00F5F1F4F0F731127E02E3E
:100270008C8DE8120CC00FB607FCFACFE889F9891B
:10028000808185FFF5CFCE010E94FC00F1CF8B8DE0
:10029000FE01E80FF11DE35AFF4FF0829FB7F8947B
:1002A0000B8FEA89FB89808180620AC09FB7F8942E
:1002B000EE89FF896083E889F98980818370806491
:1002C00080839FBF81E090E0DF91CF911F910F91DC
:1002D000FF90EF900895CF93DF93EC01888D8823F2
:1002E000C9F0EA89FB89808185FD05C0A889B989A3
:1002F0008C9186FD0FC00FB607FCF5CF808185FF7E
:10030000F2CFA889B9898C9185FFEDCFCE010E94EB
:10031000FC00E7CFDF91CF91089580E090E0892B3A
:1003200029F00E94F20081110C940000089590E0E1
:10033000FC01E859FF4F2491FC01EC55FF4F34912B
:10034000FC01E057FF4FE491EE2309F43CC0222367
:1003500039F1233091F038F42130A9F0223001F541
:1003600084B58F7D12C0273091F02830A1F0243061
:10037000B9F4809180008F7D03C0809180008F77D9
:10038000809380000DC084B58F7784BD09C08091B3
:10039000B0008F7703C08091B0008F7D8093B00054
:1003A000F0E0EE0FFF1FE458FF4FA591B4919FB707
:1003B000F894611104C08C913095382302C0EC91FF
:1003C0003E2B3C939FBF08953FB7F894809127013F
:1003D00090912801A0912901B0912A0126B5A89BEE
:1003E00005C02F3F19F00196A11DB11D3FBFBA2FC7
:1003F000A92F982F8827820F911DA11DB11DBC0127
:10040000CD0142E0660F771F881F991F4A95D1F7EB
:1004100008958F929F92AF92BF92CF92DF92EF9208
:10042000FF920E94E4014B015C0184EFC82EDD24A1
:10043000D394E12CF12C0E94E401DC01CB0188195A
:100440009909AA09BB09883E9340A105B10598F313
:1004500021E0C21AD108E108F10888EE880E83E095
:10046000981EA11CB11CC114D104E104F10419F7B8
:10047000FF90EF90DF90CF90BF90AF909F908F90C4
:1004800008950E94D1031F920F920FB60F9211246C
:100490002F933F934F935F936F937F938F939F938C
:1004A000AF93BF93EF93FF938BE291E00E94FC0028
:1004B000FF91EF91BF91AF919F918F917F916F913C
:1004C0005F914F913F912F910F900FBE0F901F9012
:1004D00018951F920F920FB60F9211242F938F939E
:1004E0009F93EF93FF93E0913B01F0913C0180815A
:1004F000E0914101F091420182FD12C09081809112
:1005000044018F5F8F7320914501821751F0E09174
:100510004401F0E0E55DFE4F958F8093440101C0FA
:100520008081FF91EF919F918F912F910F900FBE3E
:100530000F901F9018951F920F920FB60F921124D3
:100540002F933F938F939F93AF93BF9380912301FA
:1005500090912401A0912501B091260130912201B2
:1005600023E0230F2D3720F40196A11DB11D05C0F6
:1005700026E8230F0296A11DB11D2093220180932E
:10058000230190932401A0932501B093260180912B
:10059000270190912801A0912901B0912A0101968B
:1005A000A11DB11D8093270190932801A0932901DB
:1005B000B0932A01BF91AF919F918F913F912F915D
:1005C0000F900FBE0F901F901895789484B582609D
:1005D00084BD84B5816084BD85B5826085BD85B5E7
:1005E000816085BD80916E00816080936E00109265
:1005F00081008091810082608093810080918100E0
:100600008160809381008091800081608093800070
:100610008091B10084608093B1008091B0008160CE
:100620008093B00080917A00846080937A008091FA
:100630007A00826080937A0080917A008160809352
:100640007A0080917A00806880937A001092C100CD
:10065000E0913B01F0913C0182E08083E091370121
:10066000F09138011082E0913901F0913A018FEC5C
:10067000808310924301E0913F01F091400186E0B8
:100680008083E0913D01F0913E0180818061808313
:10069000E0913D01F0913E01808188608083E0918E
:1006A0003D01F0913E01808180688083E0913D01B1
:1006B000F0913E0180818F7D8083E1EBF0E0249119
:1006C000EDE9F0E08491882399F090E0880F991F7C
:1006D000FC01EA57FF4FA591B491FC01E458FF4F8C
:1006E000859194918FB7F894EC91E22BEC938FBFA6
:1006F0008BE291E00E94C40082359105E1F461E053
:100700008DE00E9497010E94090260E08DE00E9446
:1007100097010E9409024CE050E062E171E08BE237
:1007200091E00E94870042E050E06FE171E08BE2CF
:1007300091E00E9487000E948D01DACFEBE2F1E0A8
:100740001382128288EE93E0A0E0B0E08483958368
:10075000A683B78384E091E09183808385EC90E069
:100760009587848784EC90E09787868780EC90E07B
:10077000918B808B81EC90E0938B828B82EC90E06C
:10078000958B848B86EC90E0978B868B118E128EE6
:10079000138E148E0895EE0FFF1F0590F491E02D37
:1007A000099481E090E0F8940C94D603F894FFCF7C
:1007B000000000001E018700B5006B01E600C400C8
:1007C000D80048656C6C6F20576F726C6421000D07
:0207D0000A001D
:107E0000112484B714BE81FFF0D085E080938100F7
:107E100082E08093C00088E18093C10086E0809377
:107E2000C20080E18093C4008EE0C9D0259A86E02C
:107E300020E33CEF91E0309385002093840096BBD3
:107E4000B09BFECF1D9AA8958150A9F7CC24DD24C4
:107E500088248394B5E0AB2EA1E19A2EF3E0BF2EE7
:107E6000A2D0813461F49FD0082FAFD0023811F036
:107E7000013811F484E001C083E08DD089C08234E0
:107E800011F484E103C0853419F485E0A6D080C0E4
:107E9000853579F488D0E82EFF2485D0082F10E0AE
:107EA000102F00270E291F29000F111F8ED06801E7
:107EB0006FC0863521F484E090D080E0DECF843638
:107EC00009F040C070D06FD0082F6DD080E0C81688
:107ED00080E7D80618F4F601B7BEE895C0E0D1E017
:107EE00062D089930C17E1F7F0E0CF16F0E7DF06D8
:107EF00018F0F601B7BEE89568D007B600FCFDCFD4
:107F0000A601A0E0B1E02C9130E011968C91119780
:107F100090E0982F8827822B932B1296FA010C0160
:107F200087BEE89511244E5F5F4FF1E0A038BF0790
:107F300051F7F601A7BEE89507B600FCFDCF97BE46
:107F4000E89526C08437B1F42ED02DD0F82E2BD052
:107F50003CD0F601EF2C8F010F5F1F4F84911BD097
:107F6000EA94F801C1F70894C11CD11CFA94CF0C13
:107F7000D11C0EC0853739F428D08EE10CD085E9AC
:107F80000AD08FE07ACF813511F488E018D01DD067
:107F900080E101D065CF982F8091C00085FFFCCF94
:107FA0009093C60008958091C00087FFFCCF809118
:107FB000C00084FD01C0A8958091C6000895E0E648
:107FC000F0E098E1908380830895EDDF803219F02E
:107FD00088E0F5DFFFCF84E1DECF1F93182FE3DFCA
:107FE0001150E9F7F2DF1F91089580E0E8DFEE27F6
:047FF000FF270994CA
:027FFE00040479
:0400000300007E007B
:00000001FF