:100000000C9453000C947B000C947B000C947B00AC
:100010000C947B000C947B000C947B000C947B0074
:100020000C947B000C947B000C947B000C947B0064
:100030000C947B000C947B000C947B000C947B0054
:100040000C94B5020C947B000C9483020C945D021A
:100050000C947B000C947B000C947B000C947B0034
:100060000C947B000C947B0000000000250028000D
:100070002B0000000000240027002A0004040404D0
:100080000404040402020202020203030303030342
:10009000010204081020408001020408102001021F
:1000A00004081020FF0211241FBECFEFD8E0DEBFEE
:1000B000CDBF22E0A8E3B1E001C01D92AA32B20791
:1000C000E1F711E0A0E0B1E0ECE2FBE002C0059056
:1000D0000D92A833B107D9F710E0C3E5D0E004C012
:1000E0002197FE010E948905C235D107C9F70E94F8
:1000F0003E030C9494050C940000E5E4F1E0A08923
:10010000B18982E08C93A485B5851C92A685B785BC
:100110008FEC8C93108EA489B58986E08C93A2898C
:10012000B3898C9180618C93A289B3898C9188600A
:100130008C93A289B3898C9180688C930288F3890F
:10014000E02D80818F7D80830895CF92DF92EF92A2
:10015000FF920F931F93CF93DF936C017A018B0172
:10016000C0E0D0E0CE15DF0581F0D8016D918D01A2
:10017000D601ED91FC910190F081E02DC601099529
:10018000892B11F02196EECF7E01C701DF91CF912F
:100190001F910F91FF90EF90DF90CF9008950895F9
:1001A00080E090E00895FC01538D448D252F30E0D0
:1001B000842F90E0821B930B541710F0CF96089574
:1001C00001970895FC01918D828D981761F0828DC1
:1001D000DF01A80FB11D5D968C91928D9F5F9F737B
:1001E000928F90E008958FEF9FEF0895FC01918D1D
:1001F000828D981731F0828DE80FF11D858D90E08A
:1002000008958FEF9FEF0895FC01918D228D892F26
:1002100090E0805C9F4F821B91098F73992708950E
:1002200085E491E00E94040121E0892B09F420E09B
:10023000822F0895FC01848DDF01A80FB11DA35A00
:10024000BF4F2C91848D90E001968F739927848FF6
:10025000A689B7892C93A089B1898C918370806419
:100260008C93938D848D981306C00288F389E02DBA
:1002700080818F7D80830895EF92FF920F931F936B
:10028000CF93DF93EC0181E0888F9B8D8C8D981349
:1002900005C0E889F989808185FD26C0F62E0B8D81
:1002A00010E00F5F1F4F0F731127E02E8C8DE812A7
:1002B0000CC00FB607FCFACFE889F989808185FF69
:1002C000F5CFCE010E941A01F1CF8B8DFE01E80F10
:1002D000F11DE35AFF4FF0829FB7F8940B8FEA8924
:1002E000FB89808180620AC09FB7F894EE89FF89FC
:1002F0006083E889F98980818370806480839FBFEF
:1003000081E090E0DF91CF911F910F91FF90EF90EE
:100310000895CF93DF93EC01888D8823C9F0EA8993
:10032000FB89808185FD05C0A889B9898C9186FDEE
:100330000FC00FB607FCF5CF808185FFF2CFA889EB
:10034000B9898C9185FFEDCFCE010E941A01E7CFCC
:10035000DF91CF91089580E090E0892B29F00E94F1
:10036000100181110C94000008958E3008F08E5019
:100370008770806480937C0080917A008064809391
:100380007A0080917A0086FDFCCF809178002091E0
:10039000790090E0922B08953FB7F89480913D0149
:1003A00090913E01A0913F01B091400126B5A89BDC
:1003B00005C02F3F19F00196A11DB11D3FBFBA2FF7
:1003C000A92F982F8827820F911DA11DB11DBC0157
:1003D000CD0142E0660F771F881F991F4A95D1F71C
:1003E00008952FB7F8946091390170913A01809186
:1003F0003B0190913C012FBF08950E948F0561152C
:10040000710579F0FB0101900020E9F73197AF0108
:10041000461B570BDC01ED91FC910280F381E02D2E
:10042000099480E090E008958F929F92AF92BF92DE
:10043000EF92FF920F931F93CF93DF93CDB7DEB769
:10044000A1970FB6F894DEBF0FBECDBF7C01FA01B5
:10045000CB0119A2223008F42AE08E010F5D1F4F54
:10046000822E912CA12CB12CBF01A50194010E94D8
:100470006705F901CA01015011096A3014F4605D81
:1004800001C0695CD8016C93232B242B252B61F7C9
:10049000B801C7010E94FF01A1960FB6F894DEBF14
:1004A0000FBECDBFDF91CF911F910F91FF90EF90C5
:1004B000BF90AF909F908F9008951F920F920FB6AC
:1004C0000F9211242F933F934F935F936F937F93DA
:1004D0008F939F93AF93BF93EF93FF9385E491E046
:1004E0000E941A01FF91EF91BF91AF919F918F915F
:1004F0007F916F915F914F913F912F910F900FBE20
:100500000F901F9018951F920F920FB60F92112403
:100510002F938F939F93EF93FF93E0915501F09169
:1005200056018081E0915B01F0915C0182FD12C077
:10053000908180915E018F5F8F7320915F018217A0
:1005400051F0E0915E01F0E0EB5BFE4F958F809300
:100550005E0101C08081FF91EF919F918F912F915A
:100560000F900FBE0F901F9018951F920F920FB60D
:100570000F9211242F933F938F939F93AF93BF9329
:100580008091390190913A01A0913B01B0913C01D9
:100590003091380123E0230F2D3720F40196A11D5F
:1005A000B11D05C026E8230F0296A11DB11D2093A1
:1005B00038018093390190933A01A0933B01B093A5
:1005C0003C0180913D0190913E01A0913F01B0918D
:1005D00040010196A11DB11D80933D0190933E0104
:1005E000A0933F01B0934001BF91AF919F918F9134
:1005F0003F912F910F900FBE0F901F901895E5E43B
:10060000F1E01382128288EE93E0A0E0B0E08483F0
:100610009583A683B78384E091E09183808385EC02
:1006200090E09587848784EC90E09787868780ECBC
:1006300090E0918B808B81EC90E0938B828B82ECAD
:1006400090E0958B848B86EC90E0978B868B118E57
:10065000128E138E148EE2EEF1E01682178210864F
:100660001186128613861486158616861786108ABA
:10067000118A128A138A148A158A0895789484B587
:10068000826084BD84B5816084BD85B5826085BD8E
:1006900085B5816085BD80916E00816080936E001C
:1006A000109281008091810082608093810080910E
:1006B00081008160809381008091800081608093BF
:1006C00080008091B10084608093B1008091B0007F
:1006D00081608093B00080917A00846080937A007A
:1006E00080917A00826080937A0080917A008160A4
:1006F00080937A0080917A00806880937A001092CB
:10070000C100109226021092270210922802109225
:1007100029021092E4011092E5011092E601109274
:10072000E7010E94F1016B017C014B015C0128EBA8
:10073000820E2BE0921EA11CB11C0E94F1016C15CF
:100740007D058E059F0528F086169706A806B90632
:10075000A0F785E491E090932502809324020E9403
:100760007D000E94F1016093E4017093E5018093A4
:10077000E6019093E70162E171E08091240290919B
:1007800025020E94FF010E94F1016B017C014B01D7
:100790005C013AE0830E911CA11CB11C0E94F10186
:1007A0006C157D058E059F0528F086169706A80610
:1007B000B906A0F781E08093F8010E947D00EEE980
:1007C000F0E02491EAE8F0E084918823C1F090E021
:1007D000880F991FFC01EE58FF4FC591D491FC0181
:1007E000E859FF4FA591B4919FB7F8948881E22F03
:1007F000E0958E2388838C91E823EC939FBFC8EB10
:10080000DBE08EE00E94B5010E94CC016B017C010F
:100810000E94CC01DC01CB018C199D09AE09BF09F6
:10082000883E9340A105B10598F3219751F784EFD5
:10083000882E99249394A12CB12C0E94F101672B4E
:10084000682B692B41F40E94F1016230710581052A
:10085000910508F40FC10E94F101C0904101D090B0
:100860004201E0904301F09044016C157D058E0536
:100870009F0540F4609341017093420180934301CE
:1008800090934401C0904101D0904201E090430117
:10089000F09044019B01AC012C193D094E095F0900
:1008A00069017A013AEFC316D104E104F10408F4B6
:1008B000E1C06093410170934201809343019093A2
:1008C00044018092F0019092F101A092F201B09265
:1008D000F3011092F4011092F5011092F6011092BA
:1008E000F7018091E8019091E901A091EA01B091AE
:1008F000EB018093EC019093ED01A093EE01B09396
:10090000EF010E94F1016093E8017093E901809387
:10091000EA019093EB010E94F1016093E40170936E
:10092000E5018093E6019093E7010E94F1016B01DC
:100930007C0164E271E080912402909125020E9482
:10094000FF012AE041E050E060E070E08091240285
:10095000909125020E9414026BE271E080912402C2
:10096000909125020E94FF012AE0B701A601809123
:100970002402909125020E9414026DE271E08091A0
:100980002402909125020E94FF018091E80190913C
:10099000E901A091EA01B091EB01B701A601481B62
:1009A000590B6A0B7B0B2AE080912402909125025F
:1009B0000E9414026DE271E0809124029091250260
:1009C0000E94FF014091E8015091E9016091EA0124
:1009D0007091EB018091EC019091ED01A091EE01FD
:1009E000B091EF01481B590B6A0B7B0B2AE08091F9
:1009F0002402909125020E9414026FE271E080911E
:100A00002402909125020E94FF010E94F101AB0196
:100A1000BC012AE080912402909125020E941402D8
:100A2000C0912402D091250261E371E0CE010E94C1
:100A3000FF0161E271E0CE010E94FF010E94F1011D
:100A40006B017C012B013C0145E0440E511C611CF3
:100A5000711C0E94F1016C157D058E059F0588F5BE
:100A60000E94F1016093E8017093E9018093EA012B
:100A70009093EB018EE00E94B5016C01990FEE0896
:100A8000FF08F7FE0EC06DE285E491E00E943C0194
:100A900044275527BA014C195D096E097F092AE0E0
:100AA00003C02AE0B701A60185E491E00E94140288
:100AB00061E271E085E491E00E94FF010E94AB01D8
:100AC000BCCE461657066806790618F6C9CFA1E2CD
:100AD0001A2EAA1BBB1BFD010DC0AA1FBB1FEE1FB8
:100AE000FF1FA217B307E407F50720F0A21BB30B03
:100AF000E40BF50B661F771F881F991F1A9469F77F
:100B000060957095809590959B01AC01BD01CF01DA
:100B10000895EE0FFF1F0590F491E02D099481E0F8
:0C0B200090E0F8940C949405F894FFCF3A
:100B2C00000000003C01A500D30089010401E20093
:100B3C00F600564D4450565F317C315F564D445053
:100B4C00560D0A00564D4450455F003A323A007C2F
:080B5C00005F564D44504500B6
:107E0000112484B714BE81FFF0D085E080938100F7
:107E100082E08093C00088E18093C10086E0809377
:107E2000C20080E18093C4008EE0C9D0259A86E02C
:107E300020E33CEF91E0309385002093840096BBD3
:107E4000B09BFECF1D9AA8958150A9F7CC24DD24C4
:107E500088248394B5E0AB2EA1E19A2EF3E0BF2EE7
:107E6000A2D0813461F49FD0082FAFD0023811F036
:107E7000013811F484E001C083E08DD089C08234E0
:107E800011F484E103C0853419F485E0A6D080C0E4
:107E9000853579F488D0E82EFF2485D0082F10E0AE
:107EA000102F00270E291F29000F111F8ED06801E7
:107EB0006FC0863521F484E090D080E0DECF843638
:107EC00009F040C070D06FD0082F6DD080E0C81688
:107ED00080E7D80618F4F601B7BEE895C0E0D1E017
:107EE00062D089930C17E1F7F0E0CF16F0E7DF06D8
:107EF00018F0F601B7BEE89568D007B600FCFDCFD4
:107F0000A601A0E0B1E02C9130E011968C91119780
:107F100090E0982F8827822B932B1296FA010C0160
:107F200087BEE89511244E5F5F4FF1E0A038BF0790
:107F300051F7F601A7BEE89507B600FCFDCF97BE46
:107F4000E89526C08437B1F42ED02DD0F82E2BD052
:107F50003CD0F601EF2C8F010F5F1F4F84911BD097
:107F6000EA94F801C1F70894C11CD11CFA94CF0C13
:107F7000D11C0EC0853739F428D08EE10CD085E9AC
:107F80000AD08FE07ACF813511F488E018D01DD067
:107F900080E101D065CF982F8091C00085FFFCCF94
:107FA0009093C60008958091C00087FFFCCF809118
:107FB000C00084FD01C0A8958091C6000895E0E648
:107FC000F0E098E1908380830895EDDF803219F02E
:107FD00088E0F5DFFFCF84E1DECF1F93182FE3DFCA
:107FE0001150E9F7F2DF1F91089580E0E8DFEE27F6
:047FF000FF270994CA
:027FFE00040479
:0400000300007E007B
:00000001FF